:0600000002006902077511
:03000B0002079653
:030013000207776A
:03001B0002079841
:030023000205CC07
:03002B0002079A2F
:03003300020F4F6A
:03003B000210723E
:03004300020100B7
:03004B0002077633
:03005300020100A7
:03005B0002077821
:0300630002077918
:0300CE00020066C7
:030066000201CACA
:2001CA0090E6007410F090E60B7403F0903E00E4F0903E0104F0903E0204F0903E037406CF
:2001EA00F0903E0075F0001203C290E61174B0F090E610E0FF747F5FF0008390E61274A298
:20020A00F0008390E61474E2F0008390E6047480F0008390E6047402F0008390E6047406D6
:20022A00F0008390E6497482F0008390E6497482F0008390E604E4F0751002902580E4F50E
:20024A00F0120528D20212079CE4FEFFF508F509F50AF50BEE4F704E90E6A3E0F87900207C
:20026A00E24490E690E0F9780090E691E07A0048FEEA49FF7534007535F08E368F3790E0E1
:20028A0000C007C0061206E5D006D00790E691E4F08E348F3590E00075F000C007C0061248
:2002AA000349D006D007C3E5089EE5099F502185088274E02509F583E0F582C007C00612F0
:2002CA00055ED006D00750080508E4B508020509EEB5080BEFB50907E4FEFFF508F509AAFE
:2002EA000AAB0B8A0074F82BF97D00888289838DF0C007C006C003C002120590D002D003AC
:20030A00D006D00750070ABA00D90B80D68A0A8B0BEA4B700302025E7C008B0590E698ED96
:20032A00F000837B0090E699EAF0E4F50AF50B02025E12043550012290E6A07401F02285B7
:20034A00823685833785F0387B007C00C3EB9534EC95355062EB2536F8EC3537F9AA388820
:20036A008289838AF0121090FABA61004005EA2485501EEB2536F8EC3537F9AA388882895A
:20038A00838AF0121090FABA41004024EA24A5401FEB2536F8EC3537F9AA38888289838A28
:1803AA00F0121090FF0F888289838AF0EF12077A0BBB00980C809522D8
:2010BB00FA10071112010002EF020140501DB7600200010200010902000002010080FA2278
:2010DB001138112A112F1133114A114111511158110000D110BF10000001EE1002BB105494
:2010FB00696D566964656F732E7573005553422053657269616C206C6F6F6261636B206595
:07111B0078616D706C650046
:2003C200AD82AE83AFF0121090FC04FB90113AECF0901143EBF08D828E838FF01210909018
:2003E2001124F0901137EBF074012DFAE43EFB8F048A828B838CF0121090FA43028090112F
:200402004CEAF074022DFAE43EFB8F048A828B838CF0121090901153F074032DFDE43EFE7A
:200422008D828E838FF0121090FD43058090115AEDF022AE82AF83E0FDE4BD210104FC6048
:20044200338E828F83A3E0FBBB22298E828F83A3A3A3A3E0FAA3E0FB4A701974062EF582C9
:20046200E43FF583E0FAA3E0FB4A700890E6A07480F0D322BDA1658E828F83A3E0FDBD2193
:200482005B8E828F83A3A3A3A3E0FBA3E0FD4B704B74062EF582E43FF583E0FBA3E0FDBB20
:2004A200073ABD003790E740E4F074C2A3F07401A3F0E4A3F090E744F090E745F090E7461E
:2004C2007408F090E6B57401F090E68AE4F090E68B7407F090E6A07480F0D322EC60458ED0
:2004E200828F83A3E0FDBD203B8E828F83A3A3A3A3E0FCA3E0FD4C702B74062EF582E43F9B
:20050200F583E0FEA3E0FFBE071ABF001790E6B57401F090E68AE4F090E68BF090E6A0746D
:0605220080F0D322C32289
:20112200080B000202020000052400200104240200052406000009040000010202000009D6
:1D114200040000020A0000000705000308000A07050002000200070500020002003F
:0C00C200750C00750D00750E00750F0028
:20052800AC82AD83AEF0FFD2CDD2CCC2CAEFC313FFEE13FEED13FDEC13F5828D838EF0EF3C
:2005480012064FD2CAC29FD29EC29DD29CC299C298D2ACC2BC22AF827440250DFEAD0CB59C
:200568000502C322743F5D2404F582E4343EF583EFF0AF0C743F5FFEBE3106740F2FFE803B
:2005880003EF04FE8E0CD322AD82AE83AFF0E50EB50F02C322743F550F2436F582E4343EF5
:2005A800F583E0FC8D828E838FF012077A743F550FFFBF3107740F250FFF8004E50F04FF6F
:2005C8008F0FD322C0E0C082C083C007C006C0D075D00010980280307440250FFFAE0EB547
:2005E80006028024AF99743F5E2436F582E4343EF583EFF0AF0E743F5FFEBE3106740F2FFC
:20060800FE8003EF04FE8E0E109902802DE50CB50D028026743F550D2404F582E4343EF512
:2006280083E0FF743F550DFEBE3107740F250DFE8004E50D04FE8E0D8F99D0D0D006D0070C
:20064800D083D082D0E032AC82AD83AEF0FF90E600E0FB530318E4C423CBC423541F6BCB2B
:20066800541FCB6BCB8BF005F07B017A008006EB2BFBEA33FAD5F0F7438E208B34753500D4
:2006880075360075370090C6C075F02DE4C007C006C005C004120EE1A882A983AAF0FBD09D
:2006A80004D005D006D0078C348D358E368F37888289838AF0EB120710AC82AD83AEF0FF01
:1D06C8001CBCFF091DBDFF051EBEFF011F74FFC39CFC74FF9DFD8D078FCB8CCA221B
:2006E500AA82AB83AC34AD35AE36AF37EE60010FEF601775AF078A9B8B9A8C9E8D9D90E60C
:0B0705007CE090E67BF0DEF6DFF422E3
:20071000FB7A20E4FCFDFEFFE5822582F582E58333F583E5F033F5F0EB33FB4017DAE98022
:2007300042E5822582F582E58333F583E5F033F5F0EB33FBEC33FCED33FDEE33FEEF33FF51
:20075000EC9534ED9535EE9536EF95374013EC9534FCED9535FDEE9536FEEF9537FF4382BB
:0507700001DABEEB22DE
:06009800E478FFF6D8FD3C
:010775003251
:010776003250
:01077700324F
:200076007900E94400601B7A00901163786875923EE493F2A308B800020592D9F4DAF27533
:0200960092FFD7
:01077800324E
:01077900324D
:0301000002084AA8
:0301040002107373
:03010800020F5D86
:03010C0002104F8F
:0301100002108F4B
:030114000210B422
:03011800020F5281
:03011C000201B825
:03012000020F7E4D
:030124000210B214
:03012800020F7F44
:03012C000210B30B
:030130000210BA00
:030134000207952A
:0301380002079724
:03013C0002079B1C
:03014000020F7B30
:030144000201B8FD
:030148000210ACF6
:03014C000210ADF1
:030150000210AEEC
:030154000210AFE7
:030158000210B0E2
:03015C000210B1DD
:0301600002107416
:030164000201B8DD
:030168000201B8D9
:03016C000201B8D5
:03017000020F7DFE
:03017400020F80F7
:03017800020F9ED5
:03017C0002104D21
:03018000020F81EA
:03018400020F9FC8
:0301880002104E14
:03018C00021065F9
:03019000020F500B
:03019400020F5304
:03019800020F5EF5
:03019C00020F7AD5
:0301A000020F51FA
:0301A400020F54F3
:0301A800020F79CA
:0301AC00020F7CC3
:0301B000020799AA
:0301B4000210B97D
:0101B8003214
:1B077A0020F71130F6138883A88220F509F6A8837583002280FEF280F5F0227E
:010795003231
:010796003230
:01079700322F
:01079800322E
:01079900322D
:01079A00322C
:01079B00322B
:20079C00C201752200D2E890E668E0FF74084FF090E65CE0FF74014FF090E65D7401F0D242
:2007BC00AF90E680E0FF7E0020E10990E680E0FF74024FF030020F90E680E0FF74084FF0B6
:2007DC0090000A12102990E680E0FF74F75FF022AF82BF00028037BF01028036BF02028003
:2007FC0039BF04028038BF06028037BF08028036BF80028019BF8102801CBF8202801BBFD5
:20081C008402801ABF86028019BF881E801890E6A02290E6A12290E6A22290E6A32290E663
:20083C00A42290E6A52290E6A62290000022C021C0E0C0F0C082C083C007C006C005C004DD
:20085C00C003C002C001C000C0D075D000C08675860090E6B8E0FFE4BF800104FE60199024
:20087C00E6B9E0FDBD061190E6BAE0FCA3E0F5828C12121066020ACFEF702890E6B9E0FD72
:20089C00BD092090E6BAE0FCA3E08C82121075500990E6A07480F0020ACF90E6A07401F079
:2008BC00020ACFEE600E90E6B9E0FDBD0806120F82020ACFBF013190E6B9E0FDBD0B299012
:2008DC00E6BCE0FCA3E090E6BAE0FBA3E08B118C82121050500990E6A07480F0020ACF9093
:2008FC00E6A07401F0020ACFE4BF810104FD601790E6B9E0FCBC0A0F90E6BCE0FBA3E08B7E
:20091C0082120F5F020ACFEF703590E6B9E0FCBC032D90E6BAE0FBA3E0FCBB010EBC000B38
:20093C00D20190E6A07480F0020ACFBB0205BC00028003020ACF90E6A07480F0020ACFEE52
:20095C00603790E6B9E07031A200E433FEA201E43325E0FC420690E740EEF090E741E4F059
:20097C0090E6B504F090E68AE4F090E68B7402F090E6A07480F0020ACFED602890E6B9E0A8
:20099C00702290E740E4F090E741F090E6B504F090E68AE4F090E68B7402F090E6A0748012
:2009BC00F0020ACFBF02028003020A7990E6B9E0FEBE03028008BE01028003020A7990E6EE
:2009DC00BAE0FDA3E0FE4D6003020ACF90E6BCE0FDA3E08D821207ECAD82AE83ED4E7003A4
:2009FC00020ACF90E6B9E0FCBC03188D828E83E0FC4304018D828E83ECF090E6A07480F0E4
:200A1C00020ACF90E6BCE0FBA3E08B82C006C005120F55D005D0064003020ACF8D828E8358
:200A3C00E0FC5304FE8D828E83ECF090E6BCE0FDA3E0740F5DFB7C00530580E423CDC423F1
:200A5C00541F6DCD541FCD6DCDFEED4203EE420490E683EBF0E0FE74204EF08056BF824D07
:200A7C0090E6B9E0704790E6BCE0FEA3E08E821207ECAE82AF83EE4F60398E828F83E0FEB4
:200A9C007F0030E0047F0180027F0090E740EFF090E741E4F090E6B504F090E68AE4F09081
:200ABC00E68B7402F090E6A07480F0800690E6B812033C5391EF90E65D7401F0D086D0D043
:200ADC00D000D001D002D003D004D005D006D007D083D082D0F0D0E0D02132AE82AF83754F
:200AFC002900752AE07401B5272DE5287029AA29AB2A8E828F83E493F8A3E493F98834897D
:200B1C003588828983E493F888367537008A828B831206E5020D8D7406B52741E528703D91
:200B3C008E828F83A3A3E493FAA3E493FB4A700790E6A07401F022852932852A338A008B76
:200B5C0001883489358A828B83E493FA8A367537008532828533831206E5020D8D7402B5CF
:200B7C0027028003020CAC8E828F83A3A3A3A3E493FBC3E5289B4003020CAC8E828F83A3A6
:200B9C00A3A3A3A3E493FAA3E493FBE52875F002A42AF582EB35F0F583E493F52BA3E49335
:200BBC00F52C85292D852A2E7409252BF8E4352CF9882F8930753180A829A92AAA2BAB2C57
:200BDC008A348B35852B82852C83E493FB8B36753700888289831206E5852B82852C83E4D9
:200BFC00932529F529E4352AF52AA92FAA30AB31852932852A3389828A838BF0121090FCE7
:200C1C00A3121090FD8C348D358C828D83E493FC8C36753700853282853383C003C002C02C
:200C3C00011206E5D001D002D00389828A838BF0121090FCA3121090FD8C828D83E49325D7
:200C5C0029F529E4352AF52A740229F9E43AFA89828A838BF0121090FCA3121090FD4C70D0
:200C7C008F7402252DFCE4352EFD8C828D83E0FAA3E0FB4A6003020D8DE529C39400FAE5BE
:200C9C002A94E0FB8C828D83EAF0EBA3F0020D8D7403B5270474018001E4FD6023E528705F
:200CBC001FAB29AC2A75345F75351190115FE493FA8A367537008B828C831206E5020D8DFA
:200CDC00ED7003020D86AC287D00EC24FFFAED34FFFB74072EF582E43FF583E493F87900EB
:200CFC00C3EA98EB648089F063F08095F04003020D8674082EF582E43FF583E493FEA3E463
:200D1C0093FF1CBCFF011DEDCC25E0CC33FDEC2EF582ED3FF583E493FEA3E493FF85298283
:200D3C00852A837402F0A385822985832A04F0A385822985832A8E828F83E493FD60320ECB
:200D5C00BE00010F852982852A83EDF0A385822985832AE4F0A385822985832A90E000E03C
:200D7C00FD0D0D90E000EDF080CC90E6A07401F0227E007FE090E6B57401F090E6B3EFF095
:200D9C0090E6B4EEF090E6A07480F022AE82AF83A3A3A3A3A3E493F540A3E493F54174040E
:200DBC002EFEE43FFF7536008E828F83E493FAC3E5369A400122E53675F002A42540F582AE
:200DDC00E54135F0F583E493F537A3E493F53874092537F8E43538FA88398A3A753B80C2B7
:200DFC0004853782853883A3A3A3A3A3E493FAB522028003020EDCA839A93AAA3B88828931
:200E1C00838AF0121090FBA3121090FD74012BF53CE43DF53D853C82853D83E493FDBD04D9
:200E3C003C888289838AF0121090F53EA3121090F53F853E82853F83A3A3E493FBB534111E
:200E5C00853E82853F83A3A3A3E493FBB535028004C2038002D203A20392048047853C82BE
:200E7C00853D83E493FBBB053B300438888289838AF0121090FBA3121090FD74022BFBE429
:200E9C003DFD8B828D83E493FC53040F8B828D83E4935480C423541FFB90E6834CF0E0FD37
:200EBC0074204DF0740228F8E439F9888289838AF0121090FBA3121090FD4B6003020E1933
:050EDC000536020DC403
:04115F000403090478
:200EE100AAF0FBE5828534F0A4FCADF0E5838534F0A42DFDE435F0FEE5828535F0A42DFD4A
:200F0100E5F03EFEE433FFEA8534F0A42EFEE5F03FFFE5838535F0A42EFEE5F03FFFE582D7
:200F21008536F0A42EFEE5F03FFFEB8534F0A42FFFEA8535F0A42FFFE5838536F0A42FFF71
:0E0F4100E5828537F0A42F8EF08D838C8222FE
:010F4F00326F
:010F5000326E
:010F5100326D
:20009E007800E84400600A790075923EE4F309D8FC7868E84400600C7901903E00E4F0A38B
:0400BE00D8FCD9FA97
:010F5200326C
:010F5300326B
:010F5400326A
:080F550090E6A07480F0D322A5
:010F5D003261
:010F5E003260
:1A0F5F0090E740E4F090E6B504F090E68AE4F090E68B04F090E6A003F022DA
:010F79003245
:010F7A003244
:010F7B003243
:010F7C003242
:010F7D003241
:010F7E003240
:010F7F00323F
:010F8000323E
:010F8100323D
:1C0F820090E740E522F090E6B57401F090E68AE4F090E68B04F090E6A003F02221
:010F9E003220
:010F9F00321F
:200FA000E583700BE58224FA400122B4001122E5826003D5E0FD0075E0FED583F674F9D520
:200FC000E0FD22C007C006C001C000AE82AF83EE2EF8EF33F9EE28FEEF39FF90E600E0F8EA
:200FE000794C20E416C3EF13CE13CEFF795AE820E309C3EF13CE13CEFF7963E58124FAF80D
:20100000E926C313C313F9C3EE99F582EF9400F583D000D001D006D007500122020FA0747A
:2010200011C0E0120FC3158122C007C006AE82AF837411C0E0EE4F600D1EBEFF011F900317
:0D104000E8120FC380EF1581D006D0072203
:01104D003270
:01104E00326F
:01104F00326E
:15105000AF82E511700D8F348511359010F0120DA8D322C32228
:011065003258
:0C1066008582278512289010F0020AF7FE
:01107200324B
:01107300324A
:011074003249
:1A107500E582FF6003BF01108F227534FF7535FF9010F0120DA8D322C32295
:01108F00322E
:0D0069007581411210B5E58260030200664A
:1C10900020F71430F6148883A88220F507E6A88375830022E280F7E49322E0226F
:0110AC003211
:0110AD003210
:0110AE00320F
:0110AF00320E
:0110B000320D
:0110B100320C
:0110B200320B
:0110B300320A
:0110B4003209
:0410B500758200221E
:0110B9003204
:0110BA003203
:00000001FF
