:060000000200690207374F
:03000B000208B434
:030013000208954B
:03001B000208D701
:030023000211DBEC
:03002B0002055E6D
:0300330002108D2B
:03003B000211DCD3
:03004300020100B7
:03004B0002089414
:03005300020100A7
:03005B0002089602
:03006300020897F9
:0300CE00020066C7
:030066000201CACA
:2001CA0090E6007410F090E60B7403F0903E00E4F0903E0104F0903E0204F0903E037406CF
:2001EA00F0903E0075F00012030B90E61174B0F090E610E0FF747F5FF0008390E61274A24F
:20020A00F0008390E61474E2F0008390E6047480F0008390E6047402F0008390E6047406D6
:20022A00F0008390E6497482F0008390E6497482F0008390E604E4F0750D02902580E4F511
:20024A00F0120471D2031208DA901225E493FD740193FE740293FF7B007C008D828E838F65
:20026A00F01211FAFA60278A82C007C006C005C004C0031204D8D003D004D005D006D007EA
:20028A0050D90DBD00010E0BBB00D00C80CD8B068C077C007D00C3EC9EED64808FF063F056
:2002AA008095F0502C90000875F040C007C006C005C00412051AD004D005D006D00750D6B3
:2002CA008C8274F82DF583E508F00CBC00C80D80C57C008F0590E698EDF000837F0090E6C3
:2002EA0099EEF0008390006412119490E6497482F002025312037E50012290E6A07401F0D2
:01030A0022D0
:1212250028128048656C6C6F20776F726C64210D0A0089
:201237007612831212010002EF020140501DB7600200010200010902000002010080FA9E83
:2012570012B412A612AB12AF12C612BD12CD12D41200004D123B120000016A120237125435
:20127700696D566964656F732E7573005553422053657269616C206C6F6F6261636B206517
:0712970078616D706C6500C9
:20030B00AD82AE83AFF01211FAFC04FB9012B6ECF09012BFEBF08D828E838FF01211FA90FF
:20032B0012A0F09012B3EBF074012DFAE43EFB8F048A828B838CF01211FAFA430280901280
:20034B00C8EAF074022DFAE43EFB8F048A828B838CF01211FA9012CFF074032DFDE43EFECE
:20036B008D828E838FF01211FAFD4305809012D6EDF022AE82AF83E0FDE4BD210104FC6018
:20038B00338E828F83A3E0FBBB22298E828F83A3A3A3A3E0FAA3E0FB4A701974062EF58281
:2003AB00E43FF583E0FAA3E0FB4A700890E6A07480F0D322BDA1658E828F83A3E0FDBD214B
:2003CB005B8E828F83A3A3A3A3E0FBA3E0FD4B704B74062EF582E43FF583E0FBA3E0FDBBD8
:2003EB00073ABD003790E740E4F074C2A3F07401A3F0E4A3F090E744F090E745F090E746D6
:20040B007408F090E6B57401F090E68AE4F090E68B7407F090E6A07480F0D322EC60458E87
:20042B00828F83A3E0FDBD203B8E828F83A3A3A3A3E0FCA3E0FD4C702B74062EF582E43F52
:20044B00F583E0FEA3E0FFBE071ABF001790E6B57401F090E68AE4F090E68BF090E6A07425
:06046B0080F0D322C32241
:20129E00080B00020202000005240020010424020005240600000904000001020200000959
:1D12BE00040000020A0000000705000308000A0705000200020007050002000200C2
:0C00C200750900750A00750B00750C0034
:20047100AC82AD83AEF0FF75240A752500903E68C007C006C005C0041208B6D004D005D09E
:2004910006D007903E68E50DF07401B50D028005D29043B301E50D600E90E670E0FB7401A9
:2004B1004BF0D28843B801C2CAEC2CFCED33FDEE33FEEF338C828D838EF012079975C80011
:2004D100D2ADD2BD020776AF82903E68E0FEBE0102C3227440250AFEAD09B50502C32274E7
:2004F1003F5D2404F582E4343EF583EFF0AF09743F5FFEBE3106740F2FFE8003EF04FE8E94
:200511000920CA03120782D322AD82AE83AFF0903E68E07002C322E50BB50C02C322743F8D
:20053100550C2436F582E4343EF583E0FC8D828E838FF0120898743F550CFFBF3107740FF0
:20055100250CFF8004E50C04FF8F0CD322C021C0E0C0F0C082C083C007C006C005C004C0C6
:2005710003C002C001C000C0D075D000C2CF903E6FE0600302062C903E6F7401F0903E6832
:20059100E0FFBF01030206EE903E69E0FF24FC50030206EEEF2F9005AB738006800C80418F
:2005B100806FE509B50A030206EEC290903E6BE4F0903E697402F0743F550A2404F582E404
:2005D100343EF583E0903E6AF0743F550AFFBF3107740F250AFF8004E50A04FF8F0A020648
:2005F100EE903E6AE01392009290903E6AE0C313903E6AF0903E6BE0FF0F903E6BEFF0E0E8
:20061100FF24F840030206EE903E697403F00206EED290903E69E4F00206EE903E6FE4F06D
:20063100903E68E070030206EE903E6CE0FF24FC50030206EEEF2F90064C738006800A80A5
:200651001A80583080030206EE903E6DE4F0903E6EF0903E6C7402F00206EE903E6DE0FF03
:20067100A280E433FE530601903E6EE0FD8DF005F0EE800225E0D5F0FBFEEF4206903E6DA8
:20069100EEF0903E6EE0FF0F903E6EEFF0E0FF24F8504A903E6C7403F08042903E6CE4F020
:2006B10030803A7440250CFFAE0BB50608903E707401F08028743F5E2436FEE4343EFF9046
:2006D1003E6DE0FD8E828F83F0AF0B743F5FFEBE3106740F2FFE8003EF04FE8E0B903E69BC
:2006F100E07021903E6CE0701B903E71E0FF0F903E71EFF0E0FF24F9500F903E71E4F01208
:2007110007768005903E71E4F0D0D0D000D001D002D003D004D005D006D007D083D082D002
:20073100F0D0E0D02132C021C0E0C0F0C082C083C007C006C005C004C003C002C001C00013
:20075100C0D075D000120782D0D0D000D001D002D003D004D005D006D007D083D082D0F077
:20077100D0E0D02132C2CA903E68E0600343A80122903E68E0600353A8FE903E6FE4F0758A
:20079100CDFF75CCFFD2CA22AC82AD83AEF0FF90E600E0FB530318E4C423CBC423541F6B69
:2007B100CB541FCB6BCB8BF005F07B017A008006EB2BFBEA33FAD5F0F7438E208B247525DF
:2007D1000075260075270090C6C075F02DE4C007C006C005C00412101FA882A983AAF0FB03
:2007F100D004D005D006D0078C248D258E268F27888289838AF0EB12082FAC82AD83AEF006
:1E081100FF1CBCFF091DBDFF051EBEFF011F74FFC39CFC74FF9DFD8D078FCB8CCA22D0
:20082F00FB7A20E4FCFDFEFFE5822582F582E58333F583E5F033F5F0EB33FB4017DAE98002
:20084F0042E5822582F582E58333F583E5F033F5F0EB33FBEC33FCED33FDEE33FEEF33FF31
:20086F00EC9524ED9525EE9526EF95274013EC9524FCED9525FDEE9526FEEF9527FF43821B
:05088F0001DABEEB22BE
:06009800E478FFF6D8FD3C
:010894003231
:010895003230
:200076007900E94400601B7A009012DF787275923EE493F2A308B800020592D9F4DAF275AC
:0200960092FFD7
:01089600322F
:01089700322E
:0301000002098869
:030104000211DD08
:030108000210C61C
:03010C000211B825
:030110000211F9E0
:0301140002121EB6
:0301180002109042
:03011C000201B825
:030120000210E7E3
:0301240002121CA8
:030128000210E8DA
:03012C0002121D9F
:0301300002122494
:030134000208B30B
:030138000208B505
:03013C000208D9DD
:030140000210E4C6
:030144000201B8FD
:030148000212168A
:03014C0002121785
:0301500002121880
:030154000212197B
:0301580002121A76
:03015C0002121B71
:030160000211DEAB
:030164000201B8DD
:030168000201B8D9
:03016C000201B8D5
:030170000210E694
:030174000210E98D
:030178000211076A
:03017C0002110964
:030180000210EA80
:030184000211085D
:0301880002110A57
:03018C000211CE8F
:0301900002108ECC
:03019400021091C5
:030198000210C78B
:03019C000210E36B
:0301A00002108FBB
:0301A400021092B4
:0301A8000210E260
:0301AC000210E559
:0301B0000208D86A
:0301B40002122311
:0101B8003214
:1B08980020F71130F6138883A88220F509F6A8837583002280FEF280F5F0225F
:0108B3003212
:0108B4003211
:0108B5003210
:2008B600AA82AB83AC24AD25EC60010DED601175AF038A9B8B9A90E67B7400F0DCFDDDFBF7
:0108D60022FF
:0108D70032EE
:0108D80032ED
:0108D90032EC
:2008DA00C202750E00D2E890E668E0FF74084FF090E65CE0FF74014FF090E65D7401F0D216
:2008FA00AF90E680E0FF7E0020E10990E680E0FF74024FF030030F90E680E0FF74084FF076
:20091A0090000A12119490E680E0FF74F75FF022AF82BF00028037BF01028036BF02028057
:20093A0039BF04028038BF06028037BF08028036BF80028019BF8102801CBF8202801BBF95
:20095A008402801ABF86028019BF881E801890E6A02290E6A12290E6A22290E6A32290E624
:20097A00A42290E6A52290E6A62290000022C021C0E0C0F0C082C083C007C006C005C0049E
:20099A00C003C002C001C000C0D075D000C08675860090E6B8E0FFE4BF800104FE601990E5
:2009BA00E6B9E0FDBD061190E6BAE0FCA3E0F5828C231211CF020C0DEF702890E6B9E0FD78
:2009DA00BD092090E6BAE0FCA3E08C821211DF500990E6A07480F0020C0D90E6A07401F08F
:2009FA00020C0DEE600E90E6B9E0FDBD08061210EB020C0DBF013190E6B9E0FDBD0B2990E9
:200A1A00E6BCE0FCA3E090E6BAE0FBA3E08B228C821211B9500990E6A07480F0020C0D9098
:200A3A00E6A07401F0020C0DE4BF810104FD601790E6B9E0FCBC0A0F90E6BCE0FBA3E08BFE
:200A5A00821210C8020C0DEF703590E6B9E0FCBC032D90E6BAE0FBA3E0FCBB010EBC000B4F
:200A7A00D20290E6A07480F0020C0DBB0205BC00028003020C0D90E6A07480F0020C0DEE52
:200A9A00603790E6B9E07031A201E433FEA202E43325E0FC420690E740EEF090E741E4F018
:200ABA0090E6B504F090E68AE4F090E68B7402F090E6A07480F0020C0DED602890E6B9E029
:200ADA00702290E740E4F090E741F090E6B504F090E68AE4F090E68B7402F090E6A07480D3
:200AFA00F0020C0DBF02028003020BB790E6B9E0FEBE03028008BE01028003020BB790E6F1
:200B1A00BAE0FDA3E0FE4D6003020C0D90E6BCE0FDA3E08D8212092AAD82AE83ED4E7003E4
:200B3A00020C0D90E6B9E0FCBC03188D828E83E0FC4304018D828E83ECF090E6A07480F064
:200B5A00020C0D90E6BCE0FBA3E08B82C006C005121093D005D0064003020C0D8D828E835A
:200B7A00E0FC5304FE8D828E83ECF090E6BCE0FDA3E0740F5DFB7C00530580E423CDC423B2
:200B9A00541F6DCD541FCD6DCDFEED4203EE420490E683EBF0E0FE74204EF08056BF824DC8
:200BBA0090E6B9E0704790E6BCE0FEA3E08E8212092AAE82AF83EE4F60398E828F83E0FE35
:200BDA007F0030E0047F0180027F0090E740EFF090E741E4F090E6B504F090E68AE4F09042
:200BFA00E68B7402F090E6A07480F0800690E6B81202FE5391EF90E65D7401F0D086D0D043
:200C1A00D000D001D002D003D004D005D006D007D083D082D0F0D0E0D02132AE82AF83750F
:200C3A0015007516E07401B5132DE5147029AA15AB168E828F83E493F8A3E493F9882489C5
:200C5A002588828983E493F888267527008A828B8312109B020ECB7406B51341E514703DAB
:200C7A008E828F83A3A3E493FAA3E493FB4A700790E6A07401F02285151E85161F8A008B87
:200C9A0001882489258A828B83E493FA8A26752700851E82851F8312109B020ECB7402B5F9
:200CBA0013028003020DEA8E828F83A3A3A3A3E493FBC3E5149B4003020DEA8E828F83A311
:200CDA00A3A3A3A3E493FAA3E493FBE51475F002A42AF582EB35F0F583E493F517A3E4931E
:200CFA00F51885151985161A74092517F8E43518F9881B891C751D80A815A916AA17AB1830
:200D1A008A248B25851782851883E493FB8B267527008882898312109B851782851883E469
:200D3A00932515F515E43516F516A91BAA1CAB1D85151E85161F89828A838BF01211FAFC18
:200D5A00A31211FAFD8C248D258C828D83E493FC8C26752700851E82851F83C003C002C0EA
:200D7A000112109BD001D002D00389828A838BF01211FAFCA31211FAFD8C828D83E4932502
:200D9A0015F515E43516F516740229F9E43AFA89828A838BF01211FAFCA31211FAFD4C700B
:200DBA008F74022519FCE4351AFD8C828D83E0FAA3E0FB4A6003020ECBE515C39400FAE57C
:200DDA001694E0FB8C828D83EAF0EBA3F0020ECB7403B5130474018001E4FD6023E514701D
:200DFA001FAB15AC167524DB7525129012DBE493FA8A267527008B828C8312109B020ECB2A
:200E1A00ED7003020EC4AC147D00EC24FFFAED34FFFB74072EF582E43FF583E493F8790080
:200E3A00C3EA98EB648089F063F08095F04003020EC474082EF582E43FF583E493FEA3E4E4
:200E5A0093FF1CBCFF011DEDCC25E0CC33FDEC2EF582ED3FF583E493FEA3E493FF85158258
:200E7A008516837402F0A385821585831604F0A38582158583168E828F83E493FD60320EF0
:200E9A00BE00010F851582851683EDF0A3858215858316E4F0A385821585831690E000E075
:200EBA00FD0D0D90E000EDF080CC90E6A07401F0227E007FE090E6B57401F090E6B3EFF056
:200EDA0090E6B4EEF090E6A07480F022AE82AF83A3A3A3A3A3E493F530A3E493F5317404EF
:200EFA002EFEE43FFF7526008E828F83E493FAC3E5269A400122E52675F002A42530F582AF
:200F1A00E53135F0F583E493F527A3E493F52874092527F8E43528FA88298A2A752B80C2F7
:200F3A0005852782852883A3A3A3A3A3E493FAB50E02800302101AA829A92AAA2B88828914
:200F5A00838AF01211FAFBA31211FAFD74012BF52CE43DF52D852C82852D83E493FDBD0404
:200F7A003C888289838AF01211FAF52EA31211FAF52F852E82852F83A3A3E493FBB5241159
:200F9A00852E82852F83A3A3A3E493FBB525028004C2048002D204A20492058047852C82BB
:200FBA00852D83E493FBBB053B300538888289838AF01211FAFBA31211FAFD74022BFBE423
:200FDA003DFD8B828D83E493FC53040F8B828D83E4935480C423541FFB90E6834CF0E0FDF8
:200FFA0074204DF0740228F8E439F9888289838AF01211FAFBA31211FAFD4B6003020F57DF
:05101A000526020F0293
:0412DB0004030904FB
:20101F00AAF0FBE5828524F0A4FCADF0E5838524F0A42DFDE435F0FEE5828525F0A42DFD3A
:20103F00E5F03EFEE433FFEA8524F0A42EFEE5F03FFFE5838525F0A42EFEE5F03FFFE582B8
:20105F008526F0A42EFEE5F03FFFEB8524F0A42FFFEA8525F0A42FFFE5838526F0A42FFF72
:0E107F00E5828527F0A42F8EF08D838C8222CF
:01108D003230
:01108E00322F
:01108F00322E
:20009E007800E84400600A790075923EE4F309D8FC7872E84400600C7901903E00E4F0A381
:0400BE00D8FCD9FA97
:01109000322D
:01109100322C
:01109200322B
:0810930090E6A07480F0D32266
:20109B00AA82AB83AC24AD25AE26AF27EE60010FEF601775AF078A9B8B9A8C9E8D9D90E68C
:0B10BB007CE090E67BF0DEF6DFF42224
:0110C60032F7
:0110C70032F6
:1A10C80090E740E4F090E6B504F090E68AE4F090E68B04F090E6A003F02270
:0110E20032DB
:0110E30032DA
:0110E40032D9
:0110E50032D8
:0110E60032D7
:0110E70032D6
:0110E80032D5
:0110E90032D4
:0110EA0032D3
:1C10EB0090E740E50EF090E6B57401F090E68AE4F090E68B04F090E6A003F022CB
:0111070032B5
:0111080032B4
:0111090032B3
:01110A0032B2
:20110B00E583700BE58224FA400122B4001122E5826003D5E0FD0075E0FED583F674F9D5B3
:20112B00E0FD22C007C006C001C000AE82AF83EE2EF8EF33F9EE28FEEF39FF90E600E0F87D
:20114B00794C20E416C3EF13CE13CEFF795AE820E309C3EF13CE13CEFF7963E58124FAF8A0
:20116B00E926C313C313F9C3EE99F582EF9400F583D000D001D006D00750012202110B74A1
:20118B0011C0E012112E158122C007C006AE82AF837411C0E0EE4F600D1EBEFF011F90033E
:0D11AB00E812112E80EF1581D006D007222A
:0111B8003204
:1511B900AF82E522700D8F2485222590126C120EE6D322C322FF
:0111CE0032EE
:0C11CF0085821385231490126C020C35ED
:0111DB0032E1
:0111DC0032E0
:0111DD0032DF
:0111DE0032DE
:1A11DF00E582FF6003BF01108F0E7524FF7525FF90126C120EE6D322C322A1
:0111F90032C3
:0D00690075813112121FE5826003020066EE
:1C11FA0020F71430F6148883A88220F507E6A88375830022E280F7E49322E02204
:0112160032A5
:0112170032A4
:0112180032A3
:0112190032A2
:01121A0032A1
:01121B0032A0
:01121C00329F
:01121D00329E
:01121E00329D
:04121F0075820022B2
:011223003298
:011224003297
:00000001FF
